:020000040800F2
:1000000078070020A90100086118000839180008C5
:10001000B5010008B7010008B901000800000000A0
:10002000000000000000000000000000231A00088B
:100030003D0A0008000000008B180008251A00087F
:10004000C3010008C3010008C3010008C301000880
:10005000C3010008C3010008450A0008C3010008E5
:10006000C3010008C3010008C3010008C301000860
:10007000C3010008C3010008C3010008C301000850
:10008000C3010008C3010008C3010008000000000C
:10009000000000000000000000000000C301000894
:1000A000C3010008C3010008C3010008C301000820
:1000B000C3010008C3010008C3010008C301000810
:1000C000C3010008C3010008C3010008C301000800
:1000D000C3010008C3010008C301000800000000BC
:1000E0004D0A0008C3010008C30100080000000019
:1000F000000000000000000000000000C301000834
:1001000000000000C3010008C3010008C30100088B
:1001100000000000000000000000000000000000DF
:10012000C3010008C3010008C3010008C30100089F
:10013000C3010008000000000000000000000000F3
:10014000000000000000000000000000C3010008E3
:10015000C3010008C3010008C3010008C30100086F
:10016000C3010008C30100080000000000000000F7
:10017000000000000000000000000000000000007F
:1001800000000000C30100080000000000000000A3
:10019000C3010008DFF80CD000F0A0F800480047C9
:1001A0005D2500087807002006488047064800477C
:1001B000FEE7FEE7FEE7FEE7FEE7FEE7FEE7FEE717
:1001C000FEE7FEE7751A0008950100082DE9F05FCB
:1001D0000546002092469B468846064681464024B6
:1001E0001BE0284641464746224600F066F8534643
:1001F0005A46C01A914110D311461846224600F0C3
:100200004DF82D1A67EB01084F46224601200021C8
:1002100000F044F817EB00094E41201EA4F1010440
:10022000DFDC484631462A464346BDE8F09F0000E1
:100230000649074A0868504343F2390210440860EF
:1002400040087047014908607047000054000020D2
:100250006D4EC64110B540EA01040346A40703D021
:1002600009E010C9121F10C3042AFAD203E011F8E2
:10027000014B03F8014B521EF9D210BD10B50346D5
:10028000C9B201E003F8011B521EFBD210BD421C93
:1002900010F8011B0029FBD1801A7047202A04DBCB
:1002A000203A00FA02F1002070479140C2F1200389
:1002B00020FA03F3194390407047202A04DB203AC8
:1002C00021FA02F00021704721FA02F3D040C2F176
:1002D000200291400843194670470000064C074D24
:1002E00006E0E06840F0010394E807009847103406
:1002F000AC42F6D3FFF752FFD0260008F0260008E4
:100300000EB501788DF8041001880623090A8DF8CE
:10031000051001798DF8061081880022090A8DF8F0
:100320000710017A8DF808100089000A8DF809007D
:1003300001A8009004480189808801F0A3FE0028EC
:1003400000D047200EBD00000C0000202DE9F04F2A
:100350008BB002248DF81C404FF000098DF81D90E1
:10036000B4208DF81E009A208DF81F004FF0E10A8E
:100370008DF820A011208DF821003A208DF8220060
:10038000CF208DF8230080208DF824006E208DF87A
:10039000250036201B258DF826008DF81850C5261F
:1003A0008DF81960D52749488DF81A704FF0A508C7
:1003B00000908DF81B808DF827400723012206A9A5
:1003C000022001F0DBFD00287CD18DF818508DF85B
:1003D0001C408DF819608DF81A70A5208DF81D90BD
:1003E0008DF81B00FC20A3468DF81E004C468F2084
:1003F0008DF820A08DF81F004FF011098DF8219085
:100400004A208DF82200A0208DF8240078208DF855
:1004100025003E208DF82600E2208DF827002B498C
:100420001020891CD046CDE904414FF0CF0A8DF849
:1004300023A0CDE90240CDE9000424480123001F98
:1004400006AA0221808801F0BDFCD8BB8DF81850A7
:100450008DF819608DF81A70A5208DF81B008DF8A5
:100460001CB08DF81D4036208DF81E00AC208DF894
:100470001F008DF820808DF821904B208DF82200F0
:1004800080208DF824008DF825500A208DF8260054
:1004900034208DF827000D498DF823A01020042268
:1004A000091DCDE90220CDE904411220CDE9000467
:1004B00006480623001F06AA0221808801F082FC5C
:1004C000002800D047200BB0BDE8F08F10000020BE
:1004D0002DE9F04F91B0E2218DF82C1011218DF80B
:1004E0002D1077218DF82E10E4214FF0020A8DF89F
:1004F0002F108DF828A04FF0000B40218DF829B067
:10050000D0208DF830108DF82A001A2182208DF825
:1005100031108DF82B008DF832001B2642208DF80B
:100520002460C5278DF833008DF82570D524A448A4
:100530008DF82640A52500908DF827500A2301222A
:1005400009A9022001F01AFD00287CD18DF8246051
:100550008DF828A08DF825708DF826408DF829B0EB
:10056000E3208DF82A00A9208DF827508DF82B0064
:100570005D464FF0E20B8DF82CB011208DF82D0068
:1005800077208DF82E0020208DF8300055208DF832
:10059000310054462E208DF83200894AA3204FF0B6
:1005A000E40A8DF83300921C00948DF82FA01020DF
:1005B0000592CDE903050421CDE9015180480223CC
:1005C0000A3809AA1946408901F0FCFB0028BCD171
:1005D0000E208DF83400FF208DF8350042F22F7088
:1005E000ADF8360000208DF83800ADF8390042F63D
:1005F0000411ADF83C101022CDE9050210A9CDE997
:1006000007010DAB0721CDE90113012200916C4DCB
:10061000CDE903020A3D0FABA989688901F033FCDB
:10062000002892D11B208DF82400C5208DF82500CC
:10063000D5208DF82600A5208DF8270002208DF802
:100640002800002400E097E08DF829400B218DF868
:100650002A1084218DF82B10E2218DF82C10112105
:100660008DF82D108B218DF82E10E4218DF82F1090
:1006700080218DF83010C4218DF8311020218DF8A3
:100680003210CD218DF8331005F10E01CDE9044172
:100690001026042703968DE89100032309AA02215E
:1006A000688901F08FFB002866D10F208DF8340097
:1006B000FB208DF835004FF41E50ADF836008DF854
:1006C0003840ADF8394042F60418ADF83C80CDE929
:1006D000054610A8CDE90740B2460DF1340B0726B8
:1006E000CDE9016B4FF001090096CDE903490FAB4D
:1006F0004A46E989688901F0C6FBE8BB1B208DF8F2
:100700002400C5208DF82500D5218DF82610A521BF
:100710008DF8271002218DF828108DF829407322BA
:100720008DF82A20A0228DF82B20E2228DF82C2093
:1007300011228DF82D208C228DF82E20E4228DF8A8
:100740002F2060228DF830200B228DF8312005F10A
:100750001002CDE904428DF832008DF833908DE817
:100760009204022309AA1946688901F02BFB18B9E3
:1007700006208DF8340000E01EE0FF208DF83500E3
:100780004FF41C50ADF836008DF83840ADF83940C4
:10079000ADF83C80CDE9054A10A8CDE90740CDE988
:1007A000016B0096CDE903490FAB0122298A6889C4
:1007B00001F069FB002800D0472011B0BDE8F08FA0
:1007C000160000200C480B494FF4007201604FF4F2
:1007D0008271416000218160C1600161C0E9051240
:1007E00001620722C26241620822C261816200F096
:1007F0002BBD000000300140640000200349044A82
:1008000031F8101052F8200000F02ABABC26000877
:100810002800002030B50446194887B0002203683C
:1008200043F0040303600068174B00F004000590D8
:100830001448C1B1012914D130F8140000901348B4
:10084000CDE9010253F82400694600F045F90D4D49
:1008500000222D1F0F21285700F06CFA285700F0B6
:100860005DFA07B030BD30F81400CDE90002022077
:100870000290039053F82400694600F02DF9F0E748
:1008800030380240BC26000828000020000021105B
:1008900010B50121034800F0E3F9012800D0002041
:1008A00010BD00000000024070B50A4D4FF4807486
:1008B00000222146284600F0D8F9052000F0ECF887
:1008C00001222146284600F0D0F9BDE870400520FD
:1008D00000F0E2B8000002402DE9F04387B00E4678
:1008E0008046FF2020A18DF81800D1E90001CDE954
:1008F0000401DFF87C90002422460221484600F0E3
:10090000B4F90F27052301AA04A91A48009700F09B
:1009100089FD9DF80400022815D1BDF8075095B156
:10092000B5420ED935460CE0012303AA06A91148A9
:10093000009700F077FD9DF80C1008F80410641C77
:10094000E4B2AC42F0D301220221484600F08DF916
:100950000020009000BF401C00900228FADB07B086
:100960002046BDE8F08300000B00000000000000FE
:1009700000000240640000202DE9F047814626A0D7
:100980008A46D0E90010C6B01F46CDE9431024A026
:100990001546D0E90010CDE941100024062000F0F2
:1009A000B2F9DFF8848000220221404600F05DF9B0
:1009B0000F26052341AA43A91C48009600F032FDEA
:1009C0009DF8040102280CD0641E01220221404639
:1009D00000F04BF9062000F0A1F946B02046BDE832
:1009E000F0879DF80501E919884211D335B12B46EE
:1009F00001AA49460D48009600F014FD002FE4D0EE
:100A00003B4601AA51460948009600F00BFDDCE781
:100A10006FF00104D9E700000A00000000000000A8
:100A2000AA00000000000000000002406400002056
:100A30000149012008607047143C014070470620BE
:100A400000F061B9012000F03BB8000010B54FF490
:100A5000005000F035F802490120087010BD000078
:100A600004000020062000F059B9000004480122CB
:100A7000426141800520401E0028FCDC70470000D8
:100A80000C000020034800214161012202704170E6
:100A9000704700000C00002070B5044600F0EAF832
:100AA0000546601C02D004480078044400F0E2F8D7
:100AB000401BA042FAD370BD3400002000F038BEC5
:100AC000044910B50A68024202D00860FFF7F6FF39
:100AD00010BD0000143C01402DE9F84FDFF860B173
:100AE00000224FF001084FF0030A4FF00F090BF1FD
:100AF000040E00BF0B6808FA02F42340A3426ED133
:100B00004D68022D01D0122D0ED1D50800EB850CB9
:100B1000DCF820505607F70E09FA07F6B5430E69C0
:100B2000BE402E43CCF82060066855000F790AFAC3
:100B300005FC07F0030726EA0C06AF4037430760C1
:100B40004E68012E05D0022E03D0112E01D0122E98
:100B50000ED18668CF6826EA0C06AF40374387601F
:100B60004668A6430C79C4F30014944034434460AF
:100B7000C6688C6826EA0C06AC403443C4604C68F6
:100B8000E40056D52F4C256845F48045256024683F
:100B900022F0030504F4804400942B4C2E19D6F85F
:100BA000084895072F0F09FA07F5AC43274DA842CF
:100BB00001D1002515E0264DA84201D1012510E004
:100BC000244DA84201D102250BE0234DA84201D1BA
:100BD000032506E0214DA84202D1042501E028E0CA
:100BE0000725BD402543C6F80858DBF800405D46A0
:100BF0004E689C43F60300D51C432C60DEF8004091
:100C000075464E689C43B60300D51C432C600C4DC2
:100C100008352C684E689C43F60200D51C432C60B6
:100C2000074D0C352C684E689C43B60200D51C431A
:100C30002C60521C102AFFF45DAFBDE8F88F000055
:100C4000003C0140443802400030014000000240B6
:100C50000004024000080240000C02400010024064
:100C60000069084000D0012070470AB181617047D7
:100C70000904FBE701488068704700003400002049
:100C80000248816802781144816070473400002076
:100C90000B4810B5016841F400710160016841F42E
:100CA00080610160016841F480710160032000F0FF
:100CB00061F80F2000F006F800F024F8002010BDC5
:100CC000003C024070B50D4D04464FF47A7128780F
:100CD000B1FBF0F00A490968B1FBF0F000F0D9FC73
:100CE00048B9102C07D200222146501E00F022F8ED
:100CF00000206C6070BD012070BD00003400002039
:100D000030000020704700F01F020121914040098F
:100D1000800000F1E020C0F88011704700F01F0251
:100D2000012191404009800000F1E020C0F800114D
:100D300070470000F0B40E4B1B680C46C3F302234F
:100D4000C3F10705042D00D90425191D072901D277
:100D5000002300E0DB1E012606FA05F1491E2140B2
:100D600099409E40761E16403143F0BC00F079BD9C
:100D70000CED00E0064900F0070208684FF6FF039B
:100D8000184040EA0220034A104308607047000000
:100D90000CED00E00000FA052DE9F0470E460500D5
:100DA00065D0DFF81481D8F80000F7B200F00F002A
:100DB000B04207D288F80070D8F8000000F00F00A9
:100DC000B04254D128683D4C810712D5400703D565
:100DD000206840F4E05020602878000703D52068A0
:100DE00040F4604020602068A96820F0F0000843CB
:100DF00020602878C0072DD030496868083901285C
:100E000012D0022813D0032811D0096889070029BD
:100E10002DDA216821F0030101432160FFF72AFF49
:100E2000814641F2883A0EE009688903EFE70968D4
:100E30008901ECE7FFF71EFFA0EB0901514502D93C
:100E40000320BDE8F0872068696800F00C00B0EB73
:100E5000810FEFD1D8F80010404601F00F01B142E8
:100E600007D90770006800F00F00B04201D00120E0
:100E7000E7E72878400705D52068E96820F4E050C6
:100E8000084320602878000706D52068296920F4E7
:100E9000604040EAC100206000F016F82168084A6E
:100EA000C1F30311515CC840064908600F20FFF7E9
:100EB00009FF0020C5E70000003C0240083802405E
:100EC000BE26000830000020154810B5006810F05C
:100ED0000C02144813D01449042A0FD0082A0ED14A
:100EE0000F4C241F2268236802F03F025B0207D5E3
:100EF0002068C0F38810A0FB010106E0084610BD81
:100F00002168C1F38811A1FB00010023FFF75EF9FE
:100F10002168C1F30141491C4900B0FBF1F010BD4B
:100F2000083802400024F40040787D012DE9F84F94
:100F3000050076D02878DFF8F8B2BE4CC00749D05B
:100F4000DBF800105846C1F38101012908D0006880
:100F5000C0F3810002280AD1201D0068400206D596
:100F60002068800336D568680028E2D032E06868DF
:100F7000B0F5803F10D0B0F5A02F206810D020F43D
:100F800080302060206820F4802020606868A0B154
:100F9000FFF770FE06460CE0206840F48030F4E76E
:100FA00040F480202060F7E7FFF764FE801B642890
:100FB00073D820688003F7D50CE0FFF75BFE064688
:100FC00005E000BFFFF756FE801B6428F0D82068BC
:100FD0008003F7D42878DFF8608280074FF000099B
:100FE0003ED5DBF80010584611F00C0F09D0006810
:100FF000C0F3810002280BD18D48001F0068400219
:1010000006D42068800715D5E868012809D111E0C9
:10101000E868B8B10120C8F80000FFF72BFE0646CB
:1010200005E002E1FFF726FE801B0228C0D82068F9
:101030008007F7D52068296920F0F80040EAC10050
:1010400020600DE0C8F80090FFF714FE064604E0AB
:10105000FFF710FE801B02281FD820688007F7D4F6
:101060002878000722D5724E744869696C3671B1D0
:1010700001210160FFF7FEFD074604E0FFF7FAFDDE
:10108000C01B022809D830688007F7D50EE0C0F8E9
:101090000090FFF7EFFD074605E083E0FFF7EAFD6C
:1010A000C01B02287ED830688007F7D42878400714
:1010B00068D5DFF87CA100270AF1380ADAF80000C9
:1010C000C0000BD4DAF8001041F08051CAF80010CB
:1010D000DAF80000012700F080500090584E306888
:1010E000C00510D4306840F480703060FFF7C2FD56
:1010F000009005E0FFF7BEFD0099401A022851D884
:101100003068C005F6D54A4EA868683601280FD069
:101110000528306810D020F001003060306820F0E1
:1011200004003060A868B8B1FFF7A4FD00900FE09C
:10113000306840F00100F4E740F004003060F7E769
:10114000FFF798FD0099411A41F28830814264D836
:1011500030688007F4D50EE0FFF78CFD009007E0C3
:10116000FFF788FD0099411A41F28830814254D836
:1011700030688007F4D42FB1DAF8001021F08051E4
:10118000CAF80010A869C0B3DBF80010C1F38101F0
:1011900002294AD00228484607D0C8F86000FFF765
:1011A00069FD00E039E005463AE04746C8F86000CE
:1011B000FFF760FD064604E0FFF75CFD801B022898
:1011C0002BD820688001F7D4D5E907010843A96A24
:1011D0001C4A490802EB01416A6A41EA821108434C
:1011E00095F82C1040EA01611148001F01600120B0
:1011F0003866FFF73FFD054605E014E0FFF73AFDCE
:10120000401B022809D820688001F7D50BE000BFF9
:10121000FFF730FD401B022802D90320BDE8F88FFC
:1012200020688001F4D40020F8E70120F6E70000F0
:10123000083802400038024000004742800E474212
:10124000007000400000FFFF70B5040004D094F867
:101250005100002510B106E0012070BD84F8505007
:10126000204600F037F8022084F851002068016819
:1012700021F040010160D4E901010843D4E90312DF
:101280001143084361690843218B01F4007108434D
:10129000E1690843216A0843A16A0843216808609C
:1012A000A069042101EA1040616A0843216848608E
:1012B000A06AB0F5005F02D12168E06A0861206889
:1012C000C16921F40061C1616565012084F85100A4
:1012D000002070BD2DE9F04300684D4987B0884279
:1012E0007DD14C480024016841F001010160016892
:1012F00001F001010591016841F0020101600168FE
:1013000001F002010591016841F0010101600168ED
:1013100001F001010591016841F0010101600168DE
:1013200001F001010591016841F0010101600168CE
:1013300001F001010591016841F0010101600068BF
:1013400000F00100059033481430016841F48051E9
:101350000160006801254FF48076CDE9006500F456
:101360008050CDE90440CDE90254DFF8AC906946E5
:101370004846FFF7B1FB002231464846FFF775FCAF
:1013800008200226CDE9000602AA03274FF005082F
:1013900082E8C00169462148FFF79EFB4020CDE965
:1013A000000602AA694682E8A0014846FFF794FBBE
:1013B0008020CDE9000602AA694682E890014846ED
:1013C000FFF78AFBCDE900650295CDE90374694614
:1013D0004846FFF781FB01220221484600E013E066
:1013E000FFF743FC0E4801A9009581E8910069468A
:1013F00048460494FFF770FB002203210620FFF704
:1014000099FC0620FFF78AFC07B0BDE8F0830000D6
:101410000030014030380240000002400004024029
:10142000000011102DE9F84F044600200A9F9A464B
:1014300093460D46ADF80000064694F850004FF074
:10144000010901280ED0012084F85000FFF712FC9A
:10145000804694F85100616801280CD0B1F5827F74
:1014600007D102E00220BDE8F88FA16809B904287D
:1014700001D0022605E155B1BBF1000F07D0BAF14A
:10148000000F04D094F85100012802D004E0012696
:10149000F7E0052084F8510000206065C4F838B0FA
:1014A000A4F83EA0A4F83CA02563A4F836A0A4F8B4
:1014B00034A020646064A06A4FF4005A50450AD1F9
:1014C000206801684DF6FF721140016020680168D4
:1014D00041F40051016020680168490603D40168A5
:1014E00041F040010160E068B0F5006F606804D031
:1014F000F0B3E08E012847D07FE010B1E08E0128E4
:101500003BD1216835F8020BC860E08E401EE086B2
:1015100033E000BFB9F1000F17D0E08EA8B120680A
:101520008168890711D535F8021BC160E08E401E25
:10153000E086E08E4FF0000938B9A06A504504D12A
:101540002068016841F480510160E08F58B1206843
:101550008168C90707D0C0682BF8020BE08F401ED6
:10156000E0874FF00109781C07D0FFF783FB00E00C
:101570000AE0A0EB0800B84271D2E08E0028C9D181
:10158000E08F0028C6D13EE0216815F8010B0873F2
:10159000E08E401EE08630E0B9F1000F17D0E08EFB
:1015A000A8B120688168890711D515F8011B01735E
:1015B000E08E401EE086E08E4FF0000938B9A06A48
:1015C000504504D12068016841F480510160E08FEA
:1015D00058B120688168C90707D0C0680BF8010BB3
:1015E000E08F401EE0874FF00109781C05D0FFF71F
:1015F00041FBA0EB0800B84231D2E08E0028CBD1ED
:10160000E08F0028C8D1A06A504513D101223B4683
:1016100011462046CDF8008000F0B8F920B1606D89
:1016200040F0020060651AE02068C068ADF8000074
:10163000BDF8000020688168C90607D5616D41F0DA
:10164000020161654FF6EF71816001263B46012280
:1016500002212046CDF8008000F098F908B1032659
:101660000FE042463946204600F080F918B10126C5
:101670002020606505E0A06818B92068C16880680E
:101680000090012084F85100002084F8500030467A
:10169000E9E610B5401EB0F1807F01D3012010BDF6
:1016A0004FF0E02460610F21601700F0DAF80020AD
:1016B000A06107202061002010BD421C0078042892
:1016C00019D1107805280CD03E280CD0FF2812D153
:1016D00032F8020FA0F5406014380CD1908800F069
:1016E000E7B8FFF7CFB99178901C012903D1418861
:1016F000801DFFF7BBB9704770B50B4800F0D8FEEE
:101700000948083000F0D4FE084D0024C4EBC400A2
:1017100000EB800005EB8001034800F0D8FE641C5C
:10172000E4B2052CF2D370BD44000020BC000020C0
:1017300008B50020009022E0144800F0D4FE10B15B
:10174000FFF776F908BD6946104800F0D8FE00980A
:1017500080210830FFF7C0F810F0FF0105D0009895
:1017600080F8881000F03EF820B10848009900F099
:10177000A2FE04E005480099083000F0A8FEFFF73B
:1017800057F9FFF785F80028D6D108BD440000209E
:1017900008B500200090FFF752F910E069460D48A7
:1017A00000F0ADFEFFF75EF900980830FFF785FF07
:1017B000FFF745F907480099083800F088FE05480A
:1017C00000F091FE0028E9D0FFF7B2FFFFF74AF9D9
:1017D00008BD00004C000020014800F084BE00005D
:1017E0004C000020027A00F10801042A01D00120F7
:1017F000704790F888008978C01E814201D002208D
:101800007047002070472DE9FC410E4607461C46F4
:1018100015466421684600F077F9E3B2EAB2314632
:101820003846FFF7A9F8002804D0684600F05EF9B2
:101830000028F2D0BDE8FC81FEE7000001B582B0CF
:1018400002A80090054802230022018A408900F086
:1018500019FC002800D047200EBD00000C0000201D
:1018600070470907090E002806DA00F00F0000F1A2
:10187000E02080F8141D704700F1E02080F800148B
:101880007047FEF7E7BCFEF7F9BC704701B582B0C0
:1018900002A80090054803230022C189408900F076
:1018A000F1FB002800D047200EBD00000C000020F6
:1018B0007CB52B4C2189491C884203D12948FEF76D
:1018C0001FFD43E0A1896FF00045491C884213D1F8
:1018D000FEF7AEFC0F2180FB01012A460023FEF734
:1018E00075FC4FF48771401805B21E48FEF708FDDD
:1018F000284600F0E9F829E0E189491C884212D124
:101900006421684600F000F9FEF792FC4FF47A710A
:1019100080FB01012A460023FEF758FC12494018BB
:10192000FFF7B4FF12E0218A491C88420ED1FEF76E
:101930007FFC642180FB01012A460023FEF746FC60
:101940004FF4E171401880B2FFF778FF60880028FB
:1019500004D06088BDE87C4000F052BB7CBD000034
:101960000C00002058000020A086010038B50B466E
:10197000009204460022802100F008F8002804D0DC
:10198000606D40F020006065032038BD2DE9F04116
:101990001D4617460E460446DDF8188035E0681CE3
:1019A00033D02DB1FFF766F9A0EB0800A8422CD385
:1019B0002068416821F0E00141606068B0F5827FF5
:1019C0000BD1A068B0F5004F02D0B0F5806F04D104
:1019D0002068016821F040010160A06AB0F5005F55
:1019E0000AD1206801684DF6FF721140016020683D
:1019F000016841F400510160012084F85100002089
:101A000084F850000320BDE8F0812068806836EA41
:101A1000000004D00020B842C1D10020F3E701202B
:101A2000F9E7704710B5FFF72BF902484168491CE8
:101A3000416010BD0400002030B591B002240125A2
:101A400006200094CDE903500020CDE90640102087
:101A500008900001099008200A9004200B90684625
:101A6000FFF764FACDE90C5401210CA8FFF794F9B3
:101A700011B030BD1048016841F4700101600F4899
:101A8000016841F0010101600C4A00210832116037
:101A900002680B4B1A400260031D0A4A1A60026872
:101AA00022F48022026005480C3001600249580689
:101AB000803908607047000088ED00E0003802407F
:101AC000FFFFF6FE1030002401B582B002A800909E
:101AD0000548022300228189408900F0D3FA0028BA
:101AE00000D047200EBD00000C00002010B50446B9
:101AF000FFF7C0F82168401A6168401C814201D29A
:101B0000012010BD002010BD10B504464160FFF754
:101B1000B1F8206010BD000070B5124D0446287861
:101B200018B100F0A9FD002028700020FEF766FE25
:101B3000002816D10020FEF761FE0028FAD00A48DE
:101B4000006800280DD02068643020606068643030
:101B50006060A0686430A0602046BDE87040FEF779
:101B6000CFBB70BD0C0000202000002002E008C8A0
:101B7000121F08C1002AFAD170477047002001E007
:101B800001C1121F002AFBD1704770B58AB01546FB
:101B90000E468DF820001C46072200216846FFF7FC
:101BA00072FE1822002102A8FFF76DFE3F20ADF85B
:101BB00008008A20ADF80A0008A8049001200590CA
:101BC00007200790CDF818D0002102A800F0AAFB4A
:101BD000002802DAFF200AB070BD9DF8000000283E
:101BE000F9D1BDF801003080BDF803002880BDF8B0
:101BF000050020800020EEE770B58AB01C468DF805
:101C000020008DF82110DDE90E658DF822200722D5
:101C100000216846FFF737FE1822002102A8FFF7CF
:101C200032FE3F20ADF808008A20ADF80A0008A86F
:101C300004900320059007200790CDF818D00021CC
:101C400002A800F06FFB002802DAFF200AB070BD86
:101C50009DF800000028F9D1BDF801002080BDF8F2
:101C600003003080BDF8050028800020EEE72DE954
:101C7000F0438FB01D46134616AA6C4692E8C00387
:101C80008DF800008DF8011010221946A01CFFF7F6
:101C9000F8FD8DF812508DF813608DF81470CDF8A2
:101CA00015808DF819901822002107A8FFF7EBFD89
:101CB0003F20ADF81C008620ADF81E001A20CDE9AB
:101CC00009400DA80B9001200C90002107A800F0FE
:101CD00029FB002803DAFF200FB0BDE8F0839DF850
:101CE0003400F9E72DE9FF4F91B09846DDE91F591F
:101CF000DDE9216BA9190E31DDF878A0282903D977
:101D0000422015B0BDE8F08F8DF80000BDF8480006
:101D10006C46ADF848000127022212A9601CFFF7AB
:101D2000B0FDBDF84C00ADF84C00E01C022213A938
:101D3000FFF7A7FD8DF805808DF806A08DF80750F8
:101D40002A46494602A8FFF79CFD0835E8B232460C
:101D50002654401CC5B260195946FFF792FDA819D8
:101D6000C5B2BDF88C00ADF88C006019022223A921
:101D7000FFF787FDAD1CBDF89000EDB2ADF8900007
:101D80006019022224A9FFF77CFDAD1CEDB21822D8
:101D900000210AA8FFF777FD3F20ADF82800832037
:101DA000ADF82A0010A80F970C94CDE90D50002132
:101DB0000AA800F0B7FA002801DAFF20A1E79DF891
:101DC00040009EE72DE9FF4F8FB00D46DDE91C8BEB
:101DD000BDF83C00ADF83C0007AC1F46DDF87CA028
:101DE000DDF88490204602220FA9FFF74AFD032662
:101DF0008DF81E50012D3BD01025E01C2A4611996C
:101E0000FFF73FFDED1C032267556D1C04F80580AC
:101E10006D1C04F805B06D1CE8B21E992154401CDD
:101E2000C0B204F800A0401CC0B220992154401C4C
:101E3000C5B200216846FFF726FD1822002101A83F
:101E4000FFF721FD3F20ADF804004FF48270ADF89C
:101E500006006846CDE9045000210696039401A8C7
:101E600000F060FA002805DAFF2013B0BDE8F08F1B
:101E70000225C2E79DF800000028F6D1BDF8011048
:101E8000A9F80010F1E72DE9FF4FA7B01546DDE9ED
:101E900039B9DDE93476BDF89C00ADF89C006C469C
:101EA000DDF8E0A0DDF8F0802046022227A9FFF748
:101EB000E8FCBDF8A000ADF8A000A01C022228A9F3
:101EC000FFF7DFFC8DF80450012D12D01025601DA6
:101ED0002A462A99FFF7D5FC6D1D67556D1C66557E
:101EE0006D1C7019401D802805D942202BB0BDE81B
:101EF000F08F0225EBE7601932463699FFF7C1FCF7
:101F0000A819C0B237992154401CC0B2032204F86A
:101F100000A0401CC0B204F800B0401CC0B204F8DD
:101F20000090401CC0B23B992154401CC5B2002116
:101F300020A8FFF7A8FC1822002121A8FFF7A3FC86
:101F40003F20ADF8840040F20510ADF8860020A8CF
:101F5000CDE92450032026902394002121A800F0ED
:101F6000E1F9002801DAFF20C0E79DF88000002891
:101F7000BCD1BDF88110A8F80010B7E72DE9F041F9
:101F80008CB01E46DDF84880174607AD8DF81C0062
:101F900001282AD010242246681CFFF772FC641C1A
:101FA00003222F55641C00212E556846641CFFF740
:101FB0006AFC1822002101A8FFF765FC3F20ADF85C
:101FC00004004FF48170ADF806006846CDE9044086
:101FD000032006900395002101A800F0A3F9002832
:101FE00005DAFF200CB0BDE8F0810224D3E79DF8AC
:101FF00000000028F6D1BDF80110A8F80010F1E7A4
:1020000000B589B01822ADF81C0000216846FFF722
:102010003AFC3F20ADF8000040F22710ADF8020076
:1020200007A802900220039006A8049001200590C2
:102030000021684600F076F9002802DAFF2009B096
:1020400000BD9DF81800FAE700B587B018220021FE
:102050006846FFF718FC3F20ADF8000040F2011081
:10206000ADF8020006A80490012005900021684602
:1020700000F058F9002802DAFF2007B000BD9DF8F3
:102080001800FAE72DE9FF41A8B09E1DDDF8C880D1
:102090001D461746802E03D942202CB0BDE8F081A2
:1020A000BDF8A000ADF8A0006C462046022228A989
:1020B000FFF7E7FBBDF8A400ADF8A400A01C0222C6
:1020C00029A9FFF7DEFB8DF804708DF80550A01DDF
:1020D0002A464146FFF7D5FBF5B21822002120A879
:1020E000FFF7D1FB3F20ADF880004FF48370ADF8CF
:1020F000820026A82294CDE92350012025900021BA
:1021000020A800F00FF9002801DAFF20C5E79DF8AC
:102110009800C2E700B589B018228DF81C008DF830
:102120001D1000216846FFF7AEFB3F20ADF8000010
:102130000F20ADF8020007A802900220039006A825
:102140000490012005900021684600F0EBF800287B
:1021500002DAFF2009B000BD9DF81800FAE770B55B
:102160008D1CA8B01346802D02D9422028B070BD26
:102170008DF800006C468DF801100A4601261946BC
:10218000A01CFFF77EFBEDB21822002120A8FFF76C
:102190007AFB3F20ADF880000C20ADF8820026A825
:1021A00025962294CDE92350002120A800F0BAF80A
:1021B000002801DAFF20D9E79DF89800D6E770B52E
:1021C00086B0064601A80C46009005AB04AA02A9F9
:1021D00003A800F01DF810F0FF0514D1BDF80800A9
:1021E000000A3070BDF8080000022080BDF804101D
:1021F000C1F3031140EA01102080BDF8041001F082
:102200000F0108432080FFF7C3FA06B0284670BDCF
:102210002DE9F0418AB015460E4607461C460922B4
:1022200000216846DDF84080FFF72DFB18220021D1
:1022300003A8FFF728FB0420ADF80C000120ADF83F
:102240000E0000200590069009200890CDF81CD0C3
:10225000002103A800F066F8002803DAFF200AB086
:10226000BDE8F0819DF800000028F8D19DF801003C
:102270003870BDF8020030809DF804002870BDF869
:1022800005002080BDF80710A8F800100020E6E740
:1022900030B58FB00D460446202200216846FFF776
:1022A000F2FA8DF800401F2C00D91F2422466C46FC
:1022B0002946601CFFF7E5FA1822002108A8FFF75D
:1022C000E2FA0820ADF820000920ADF82200202015
:1022D000CDE90A400EA80C9001200D90002108A81D
:1022E00000F020F8002802DAFF200FB030BD9DF882
:1022F0003800FAE77CB560F39F21ADF800100120AB
:1023000014468DF802208DF8040069461D4603220C
:10231000481DFFF7B6FA23460422294601A800F01B
:10232000B7F87CBD2DE9F041884604460188408815
:102330008CB061F39F2085B20026642705A8029621
:1023400000F0B6F8FEF77BFB0AE069464F4800F064
:10235000D6F84E480099083800F0B9F8FFF7E8F9C8
:102360004A48083800F096F80228EEDBFEF77AFBC0
:10237000227B61882088A368FFF7BCFFB8F1000FBB
:1023800003D000200CB0BDE8F081394607A8FFF764
:10239000BBFB07A8FFF7AAFB002868D1FFF71CFAD0
:1023A0000028F6D1FEF74BFB02A9384800F0A7F849
:1023B000029800F10803017A042940D190F888209E
:1023C0005878D91CD21E0E2814D00F2804D01028FB
:1023D0004DD03E2833D118E04888A84247D16068E4
:1023E0000F2802D00878B8BB29E0606909E0626173
:1023F000206916E0B1F80100A84238D1C91C606913
:10240000D21E9042F3DC0246F1E7087863689842F6
:1024100015D16069521E904200DC02466261491C7F
:102420002069FFF72EFA19480299083800F043F89E
:1024300005A9164800F00EF9FEF714FBA1E71348B2
:10244000083800F050F840B1104800F04CF820B1C6
:102450000E480299083802E009E005A8029900F048
:1024600036F80296FFF764F9FEF7FCFA91E7029955
:1024700019B10648083800F01EF805A9034800F015
:10248000E9F8FEF7EFFA4FF0FF307BE74C00002051
:10249000FFF7B9B903460020EFF3108172B61A684E
:1024A00001E01268401C9A42FBD181F3108870470A
:1024B000006040607047EFF3108272B60368C1E9B4
:1024C00000300160086882F3108841607047EFF3C4
:1024D000108272B6086043684B604160486882F3BE
:1024E000108801607047EFF3108172B60268824273
:1024F00001D1012000E0002081F31088704730B541
:102500000D46EFF3108472B601682960006800F090
:1025100008F8296800200860296884F3108848605A
:1025200030BDEFF3108172B6D0E900231A6005C800
:1025300081F310884260704730B50D46EFF3108488
:1025400072B6416829604068FFF7EBFF29680020F8
:102550000860296884F31088486030BD38A18EB0C7
:10256000D1E9000134A4CDE90601FEF791FB002179
:102570000846FEF74FF9FFF75FFAFEF723F9FFF77A
:10258000BBF8FEF791F90CA908A8FFF718FEFEF7B3
:102590008BF99DF8200001252B4E302803D935708A
:1025A00002208DF81D00062206A909A8FFF769F987
:1025B00009AA06210020FFF7D2FDFFF745FD30787C
:1025C000012813D00BAB05AA04A90120FFF7DDFAFF
:1025D0002046FDF75CFEC3B200940022BDF8141043
:1025E000BDF81000FFF74EFD58B1FEE70BA905A896
:1025F000CDE9000104AB072200210120FFF7FCFA1E
:10260000E6E7124800211022CDE90021CDE90205BC
:1026100007230A460120FFF72AFBFDF797FEFDF787
:1026200057FF04210120FFF775FD00BFFFF7B0F849
:102630000748FFF771FAF9E7426C75654E5247009B
:10264000123400E1800300000000002040E201009D
:102650005800002038B50C46054607E0694620467C
:10266000FFF76AFF28460099FFF725FF2046FFF78E
:102670003AFF0028F2D038BD00B50DA189B0D1E9EC
:102680000001CDE9070100210846FFF701FE002007
:1026900003900490059007AA082106908DE8070092
:1026A000034602460146FFF71DFB09B000BD0000CE
:1026B00009426C75654E524728002000002000003A
:1026C00000000000000001020304060708090000E2
:1026D000F026000800000020580000006C1B0008D5
:1026E0004827000858000020200700007C1B000835
:1026F00000000000000000000000000001000000D9
:1027000000000000000000000000000000000000C9
:10271000000000000000024000080240E803000042
:102720000024F40001000000100000000000000080
:102730000000000000000000000000000000000099
:08274000000000000000000091
:040000050800019559
:00000001FF
